:020000040800F2
:10000000600C002065020008F9200008F1200008BB
:10001000F52000087D040008192A000800000000EF
:1000200000000000000000000000000001210008A6
:100030008104000800000000FD20000805210008E0
:100040007F0200087F0200087F0200087F0200088C
:100050007F0200087F0200087F0200087F0200087C
:100060007F0200087F0200087F0200087F0200086C
:100070007F0200087F0200087F0200087F0200085C
:100080007F0200087F0200087F0200087F0200084C
:100090007F0200087F0200087F0200087F0200083C
:1000A0007F0200087F0200087F0200087F0200082C
:1000B000D12100087F0200087F0200087F020008AB
:1000C0007F0200087F0200087F0200087F0200080C
:1000D0007F0200087F0200087F0200087F020008FC
:1000E0007F0200087F0200087F0200087F020008EC
:1000F0007F0200087F0200087F0200087F020008DC
:100100007F0200087F0200087F0200087F020008CB
:100110007F0200087F0200087F0200087F020008BB
:100120007F0200087F0200087F0200087F020008AB
:100130007F02000800000000000000007F020008AD
:100140007F0200087F0200087F0200087F0200088B
:100150007F0200087F0200087F0200087F0200087B
:100160007F0200087F0200087F0200087F0200086B
:100170007F0200087F0200087F02000800000000E4
:10018000000000007F0200080000000000000000E6
:100190007F02000800000000000000007F0200084D
:1001A0000000000000000000000000007F020008C6
:1001B0007F0200087F0200087F0200087F0200081B
:1001C0007F02000800F002F800F03CF80AA090E876
:1001D000000C82448344AAF10107DA4501D100F002
:1001E00031F8AFF2090EBAE80F0013F0010F18BF93
:1001F000FB1A43F001031847B04A0000D04A000040
:10020000103A24BF78C878C1FAD8520724BF30C842
:1002100030C144BF04680C60704700000023002414
:1002200000250026103A28BF78C1FBD8520728BF06
:1002300030C148BF0B6070471FB504F058FC1FBDAC
:1002400010B510BD00F0E4F81146FFF7F5FF02F01D
:10025000E7FB00F002F903B4FFF7F2FF03BC00F084
:1002600005F900000948804709480047FEE7FEE716
:10027000FEE7FEE7FEE7FEE7FEE7FEE7FEE7FEE756
:1002800004480549054A064B70470000BD21000897
:10029000C501000860060020600C002060080020F6
:1002A0006008002053EA020C00F069802DE9F04B51
:1002B0004FF00006002B1FBFB3FA83F503FA05F4D5
:1002C00024FA05F65E4012BF1643B2FA82F502FA2E
:1002D00005F4C5F120051EBF22FA05FC44EA0C0412
:1002E000203556EA044C4FEA144418BF641C4FF002
:1002F00000084FF00009904271EB030C39D300293C
:1003000019BFB1FA81F701FA07F6B0FA80F700FADF
:1003100007F6C7F120071EBF20FA07FC46EA0C06C5
:100320002037B6FBF4FCA7EB0507103F07F01F0BC7
:10033000CBF120062CFA06F60CFA0BFB44BFB346B1
:100340000026202FA4BF5E464FF0000B5BEA060C90
:1003500008BF4FF0010B19EB0B0948EB0608ABFB8C
:10036000027C06FB02CC0BFB03CCC01B71EB0C0127
:10037000C1E70B46024641464846BDE8F08B13B53F
:10038000084318BF4FF0FF300146AFF30080BDE8CF
:100390001C4070474FF0000200B513469446964645
:1003A000203922BFA0E80C50A0E80C50B1F1200188
:1003B000BFF4F7AF090728BFA0E80C5048BF0CC036
:1003C0005DF804EB890028BF40F8042B08BF704794
:1003D00048BF20F8022B11F0804F18BF00F8012B06
:1003E000704770477047704710B500F009F8006813
:1003F00010BD10B5044600F003F8046010BD000005
:10040000004870471000002000487047100000208E
:100410007546FFF7F9FFAE4605006946534620F0E2
:100420000700854618B020B5FFF72AFFBDE8204039
:100430004FF000064FF000074FF000084FF0000BA0
:10044000AC46ACE8C009ACE8C009ACE8C009ACE80F
:10045000C00921F007018D46704710B50446AFF37F
:1004600000802046BDE81040FFF7F5BE0149182086
:10047000ABBEFEE72600020070470000FEE700006A
:1004800070470000EFF3108072B600BFFEE7000077
:10049000B0B5044600F0F0F8054640F20000C2F2A4
:1004A00000000078611C18BF044400BF00F0E4F8AD
:1004B000401BA042FAD3B0BD2DE9F04F82B000F14D
:1004C0003E4241F6000502F1FF77C4F20205072221
:1004D00043F6004E4FEAB726A84208BF0622C4F2F0
:1004E000010E062E38BF4FEAB7220125002600274D
:1004F0004FF00008009208E008F101080437B8F155
:10050000100F06F1020600F0A7800C6805FA08F942
:1005100014EA090FF0D0D1F804B003220BF0030C59
:10052000ACF10104B240012C6FEA020A10D88268D3
:10053000CC6802EA0A02B440224382604268CBF3EC
:10054000001422EA090204FA08F42243426005E09A
:10055000BCF1030F02D14FF0030C20E0C2688C689D
:1005600002EA0A02B4402243BCF1020FC26016D173
:100570006FF0030202EA58020244D2F820C007F0EA
:100580001C050F230C69AB402CEA030304FA05F5A4
:100590002B431362D1F804B001250BF0030C026861
:1005A0000CFA06F302EA0A021A431BF4403F026007
:1005B000A2D0002243F644030192C4F202031A6857
:1005C0004FF6084C42F480421A601A68CFF6FF7C5E
:1005D00002F480420192019A28F00302724452F818
:1005E0000C3007F00C050F24AC40A343009C04FA28
:1005F00005F52B4342F80C30DEF808204B6842EA40
:10060000090543F60C4CDC0258BF22EA0905CEF876
:100610000850C4F2010CDCF800209C0242EA0905F3
:1006200058BF22EA0905CCF80050DEF804209C03EC
:1006300042EA090558BF22EA0905CEF80450DEF85F
:100640000020DB0342EA090558BF22EA0905CEF87B
:100650000050012550E700BF02B0BDE8F08F000058
:100660000069084018BF012070470000002A08BF39
:10067000090481617047000040F25860C2F2000036
:100680000068704740F2000040F25861C2F200007A
:10069000C2F2000100780A68104408607047000048
:1006A00080B543F60040C4F20200016841F40071D5
:1006B0000160016841F480610160016841F480716A
:1006C0000160032000F088F8002000F005F800F039
:1006D00027F8002080BD000070B540F20006C2F28D
:1006E000000640F208013278C2F200014FF47A733A
:1006F0000968B3FBF2F20446B1FBF2F1084600F0E0
:10070000A1FE0F2C4FF0010508D838B94FF0FF308B
:1007100021460022002500F033F87460284670BDA1
:1007200082B0002043F640010190C4F202014A6801
:1007300042F480424A604A6802F480420192019A7F
:100740000090086840F080500860086800F0805011
:100750000090009802B07047002848BF7047C1B2AF
:1007600000F01F00012202FA00F04EF20012CEF259
:10077000000242EAD10121F0030108607047000045
:1007800010B54EF60C5CCEF2000CDCF80030C3F372
:10079000022E8EF00704042C28BF0424BEF10303AC
:1007A0004FF0FF3E0EFA04F438BF0023A1439940F6
:1007B0000EFA03F39A43114300F00F0200F1604375
:1007C0000901043A03F564436244002848BF02F17A
:1007D0000C03197010BD00004EF60C51CEF2000152
:1007E0000A684FF6FF031A4060F30A2242F0806065
:1007F00040F0FD700860704701220168C0F80025D4
:10080000002280F8F424886940F000608861486D17
:1008100040F0805040F0030200204A65704700001D
:100820002DE9F04F8BB0002800F086800446056863
:1008300090F8BD0428B9002084F8BC04204600F0DC
:1008400093F8032084F8BD04E86BC0055CBF00206A
:100850002061206802F0A6F8206804F11C0A0A90C2
:10086000D4E90C5004F1040E9AE8C0079EE80E5833
:10087000CDE9085003A880E8C0030A988DE8005825
:10088000CDF81CA001F048FD002852D120680021BD
:10089000002502F08FF8616861B301200023002277
:1008A00003EBC30304EB830787F83C20D3B2013288
:1008B000A7F84430D3B2994287F83D0087F84050FA
:1008C000C7E912557D65EBD800200023002200BF48
:1008D00003EBC30304EB830787F87C220132D3B216
:1008E000994287F87D0287F88002C7E9A200C7F81D
:1008F0009402EDD8A06822680A90D4E90C5004F163
:10090000140E04F1240AD4E903379EE840589AE80B
:100910000007CDE9085002A880E8005810460A9A5E
:10092000CDE90076CDE90589CDF81CA001F0F4FDF4
:1009300030B1022084F8BD0401200BB0BDE8F08F77
:10094000002084F83800012084F8BD04606A012882
:1009500002D12046FFF750FF206801F0CDFD0020B6
:100960000BB0BDE8F08F0000F0B59DB0044600204C
:10097000CDE91B0001A804305821FFF70BFD2068CA
:10098000B0F1A04F02D01DB0F0BD00BF4FF4807099
:10099000019001A800F03EF8002818BFFFF772FD93
:1009A000002743F630060097C4F2020630680024A0
:1009B00040F0010030603068C4F2020400F0010031
:1009C000009000984FF4007018ADCDE9180720464C
:1009D00029461A97FFF770FD4FF4E0501890022057
:1009E000CDE9190703201B900A201C9020462946B8
:1009F000FFF762FD706840F08000706000977069DA
:100A000040F480407061706900F48040009000986C
:100A10001DB0F0BD2DE9F04381B00446006843F6F7
:100A20008C06C107C4F2020604D14FF00009810709
:100A30000CD415E03168A26B21F0C0611143316024
:100A4000B2FA82F14FEA5119810709D53168E26B98
:100A500021F0C05111433160002A08BF4FF0010955
:100A6000410705D44FF00008010712D420E000BF71
:100A70003168226B21F4401111433160B2FA82F1E6
:100A80004FEA5118B2F5801F08BF4FF00109010766
:100A90000ED53168626B21F440011143B2F5800F2D
:100AA000316008BF4FF00109002A08BF4FF001086C
:100AB00081065AD50020009056F84C0C47F20007EA
:100AC00040F0805046F84C0C56F84C0CC4F200072D
:100AD00000F0805000900098386840F480703860D2
:100AE000FFF7CAFD054600BF3868C00506D4FFF70A
:100AF000C3FD401B0228F7D93AE100BF56F81C0C91
:100B000010F4407017D0216C01F44071884212D06B
:100B100056F81C0C40F64061C4F24721012220F433
:100B200040700A6000220A6046F81C0C56F81C0C43
:100B3000C00740F071812068216C56F8842C4FF674
:100B4000FF4701F4407322F4F812C0F6FF770F401C
:100B5000B3F5407F08BF3A4346F8842C56F81C2C66
:100B60006FF31F31114346F81C1CC1060AD401065D
:100B700013D4410619D4C1051FD481052AD44105D7
:100B800030D438E094F8580040F64061C4F2472170
:100B9000C1F8A00320680106EBD5B168E26C21F42E
:100BA00040011143B1604106E5D5B168A26C21F066
:100BB00080611143B160C105DFD5B168626D21F07C
:100BC00000611143B160B2F1006F08BF4FF001083E
:100BD0008105D4D5B168626C21F080511143B160B8
:100BE000410508D5B168226D21F000511143B2F1E1
:100BF000005FB1601ED0B9F1000F1BD1B0F5006FDE
:100C000018D0B8F1000F4FF0000000F017816827EE
:100C1000C4F24727B860FFF72FFD054656F88C0C45
:100C2000800040F1A980FFF727FD401B0228F5D97D
:100C30009EE000BF40F26809C4F247290020C9F8CD
:100C40000000FFF719FD054656F88C0C000105D58C
:100C5000FFF712FD401B0228F6D989E02068C10782
:100C600001D0A16B19B1810714D5E16B91B956F888
:100C7000081C56F8082CD4E9013501F4403102F083
:100C8000706219436769114341EA851141EA0771AE
:100C900046F8081C410703D5216BB1F5801F05D02C
:100CA00001071FD5616BB1F5800F1BD156F8081CE9
:100CB00056F8082CD4E9013701F4403102F0E04243
:100CC00019432569114341EA871141EA0561D4F8C6
:100CD00028C046F8081C3168ACF1010221F01F0160
:100CE0001143316041051FD5216DB1F1005F1BD16A
:100CF000271D56F808CC56F8082CA8CFFF034FF64E
:100D0000FF7127EA01014FF0C06702F0E04207EAF5
:100D10004C2707F100771A433A43A1F5803142EAA4
:100D20008512114346F8081C000510D5271D8FCFEA
:100D300040EA8110D1034FF6FF729143A1F5803153
:100D400040EA0360084340EA077046F8080C0120B7
:100D5000C9F80000FFF790FC054600BF56F88C0C60
:100D600000013FF54EAFFFF787FC401B0228F5D985
:100D7000032001B0BDE8F0832068410701D5216B55
:100D800019B101071AD5616BC1B956F8041CD4E931
:100D9000062301F44031656A114341EA831141EAB7
:100DA0000561D4F82CC046F8041C31686FF0FF02CE
:100DB00021F4F85102EB0C2211433160C00516D525
:100DC000606DB0F1006F12D156F8040C226AD4E9BC
:100DD000061300F07060D2034FF6FF75AA43084374
:100DE000A2F5803240EA8310104346F8040C01203B
:100DF000B860FFF741FC044656F88C0C800007D41D
:100E0000FFF73AFC001B0328F6D3032016E000BFCF
:100E1000002001B0BDE8F083FFF72EFC054641F24B
:100E2000883700BF56F81C0C80073FF584AEFFF7EB
:100E300023FC401BB8424FF00300F3D901B0BDE8DA
:100E4000F08300002DE9F041002800F08B8043F68C
:100E50000808C4F202080446D8F8F8030D4600F06A
:100E60000F00884207D288F8F853D8F8F80300F04A
:100E70000F00A84276D12068810717D5410705D514
:100E8000D8F8001041F4E051C8F80010010705D56A
:100E9000D8F8001041F46041C8F80010D8F80010EC
:100EA000A26821F0F0011143C8F80010C0073FD13B
:100EB000D8F8F80300F00F00A84207D988F8F853D3
:100EC000D8F8F80300F00F00A8424BD12068410782
:100ED00007D5D8F80010E26821F4E0511143C8F8B2
:100EE0000010000708D5D8F80000216920F4604000
:100EF00040EAC100C8F8000000F07CF8D8F8001003
:100F000044F69042C1F30311C0F60002515C40F276
:100F1000080220FA01F140F20400C2F20000006869
:100F2000C2F200021160FFF7D7FB0020BDE8F0819C
:100F30006068811E022907D258F8081C89015CBF2D
:100F40000120BDE8F08111E0012807D158F8081C04
:100F500089035CBF0120BDE8F08107E058F8081C58
:100F6000890703D40120BDE8F08100BFD8F8001044
:100F700021F003010843C8F80000FFF77DFB064697
:100F800041F28837D8F80000616800F00C00B0EB3F
:100F9000810F8DD0FFF770FB801BB842F2D9032080
:100FA000BDE8F08140F2080043F60801C2F20000FB
:100FB000C4F202010068096844F6A042C1F382212C
:100FC000C0F60002515CC8407047000040F20800C3
:100FD00043F60801C2F20000C4F202010068096889
:100FE00044F6A042C1F34231C0F60002515CC84051
:100FF0007047000010B543F60404C4F202046068B0
:10100000C0F3810142F20040C0F2F400DFE801F0D9
:101010004402081841F20020C0F27A0010BD00BF5F
:10102000216801F03F02216823684902C3F3881157
:1010300016D4A1FB00010023FFF734F917E000BF2D
:10104000216801F03F02216823684902C3F3881137
:1010500016D4A1FB00010023FFF724F917E000BF1D
:1010600041F20020C0F27A004843B0FBF2F0216860
:101070000222C1F3014102EB4101B0FBF1F010BDCE
:1010800041F20020C0F27A004843B0FBF2F0216840
:10109000C1F30271B0FBF1F010BD00002DE9F04189
:1010A00082B0002800F096800446007843F60006DF
:1010B000C007C4F202062BD0B06800F00C00042870
:1010C00020D0B06800F00C00082802D170684002FF
:1010D00018D4B06800F00C000C2802D170684002EF
:1010E00010D46068B0F5803F07D0B0F5A02F40F075
:1010F0003B81306840F480203060306840F48030BC
:1011000030603BE13068800302D56068002861D020
:101110002078800722D5B06810F00C0F11D0B0688D
:1011200000F00C00082802D17068400209D5B068B0
:1011300000F00C000C2840F09F807068400200F125
:101140009B803068800702D5E068012842D1306872
:10115000216920F0F80040EAC100306020780007E3
:101160003CD42078400751D4A56985B3B06800F01D
:101170000C00082840F0A880012D2BD07068E16990
:1011800000F480028A4225D1216A00F03F028A429F
:1011900020D147F6C071626A0140B1EB821F19D1BC
:1011A000A16A4FF6FF73C903994300F44032A1F5D9
:1011B00080318A420ED1E16A00F07062B2EB016FB9
:1011C00008D1216B00F0E040B0EB017F02D100209C
:1011D00034E100BF012002B0BDE8F0816069002861
:1011E00040F20000C4F247205ED00121C0F8801E0A
:1011F000FFF742FA054600BF706F8007B1D4FFF7D2
:101200003BFA401B0228F7D9C5E000BF306C10F054
:1012100080580AD100200190306C40F0805030643A
:10122000306C00F080500190019847F20007C4F242
:1012300000073868C00511D4386840F48070386001
:10124000FFF71AFA054600BF3868C00506D4FFF755
:1012500013FA401B0228F7D99DE000BFA0680128BF
:1012600005D0052852D1306F40F004003067306F50
:1012700040F00100306753E0E068002860D00020B3
:10128000C4F2472001210160FFF7F6F9054600BFCF
:10129000306880073FF55BAFFFF7EEF9401B02288F
:1012A0004FF00300F4D9C9E00021C0F8801EFFF719
:1012B000E3F90546706F80077FF553AFFFF7DCF960
:1012C000401B0228F6D966E00027C4F24727002019
:1012D0003866FFF7D1F9022D05460BD13068800141
:1012E0005ED5FFF7C9F9401B02284FF00300F5D97E
:1012F000A4E000BF306880017FF569AFFFF7BCF95B
:10130000401B02284FF00300F4D997E0316F00280A
:1013100021F001013167316F21F00401316763D0A1
:10132000FFF7AAF9054641F2883700BF306F800702
:101330006CD4FFF7A1F9401BB842F7D92BE000BFEE
:101340000020C4F2472000210160FFF795F905460F
:10135000306880077FF502AFFFF78EF9401B022847
:101360004FF00300F4D969E03168002821F480319E
:101370003160316821F48021316051D0FFF77CF970
:10138000054600BF306880033FF5C2AEFFF774F931
:10139000401B6428F6D9032002B0BDE8F08100BFED
:1013A00004F11C052FCD246B084340EA8210D903B9
:1013B0004FF6FF729143A1F5803140EA0560084382
:1013C00040EA0470706001203866FFF755F9044662
:1013D000306880013FF5FBAEFFF74EF9001B022895
:1013E0004FF00300F4D929E0FFF746F9054641F232
:1013F000883700BF306F800708D5FFF73DF9401BE5
:10140000B8424FF00300F5D918E000BFB8F1000F63
:101410007FF4AAAE306C20F080503064A4E600BFA8
:10142000FFF72AF90546306880037FF571AEFFF7B4
:1014300023F9401B64284FF00300F4D902B0BDE843
:10144000F0810000411E0020B0EB116F1CBF012095
:1014500070474EF21002CEF2000251604EF6235158
:10146000CEF20001F0230B700721906011607047ED
:10147000704700007047000010B590F83C20012A2A
:101480004FF0020251D080F83D200268D2F804E00B
:10149000D2F808C00C682EF07003234341F2FF74A9
:1014A000C4F20004A24253600EDC40F2FF73C4F2A7
:1014B00000039A4216DCB2F1804F2BD040F2004379
:1014C000C4F2000324E000BF40F2FF33C4F2010382
:1014D0009A4213DC41F60003C4F200039A4219D089
:1014E000002313E040F60003C4F200039A4211D037
:1014F00040F60043C4F200030AE000BF44F20003D8
:10150000C4F201039A4205D040F20043C4F2010341
:101510009A4204D149682CF080031943916001215B
:10152000002280F83D1080F83C20104610BD0000DD
:10153000002804BF0120704710B5044690F83D0014
:1015400028B9002084F83C00204600F01FF8022053
:1015500084F83D002068211D00F040FE012084F841
:10156000460084F83E0084F83F0084F8400084F888
:10157000410084F8420084F8430084F8440084F871
:10158000450084F83D00002010BD000080B582B009
:10159000006841F20001C4F2000188421CD0B0F1A1
:1015A000804F28D10020019043F64000C4F2020091
:1015B0000168002241F0010101600068002100F093
:1015C0000100019001981C20FFF7DAF81C2002B0FE
:1015D000BDE88040FFF7C0B80020009043F640000F
:1015E000C4F20200016841F010010160006800F0DF
:1015F00010000090009802B080BD000090F83D10EF
:1016000001291CBF01207047022180F83D100068AD
:1016100041F2FF71C4F2000188420DDC40F2FF711B
:10162000C4F20001884215DCB0F1804F2AD040F2AC
:101630000041C4F2000123E040F2FF31C4F2010195
:10164000884213DC41F60001C4F20001884219D03F
:10165000002113E040F60001C4F20001884211D0DD
:1016600040F60041C4F200010AE000BF44F200016C
:10167000C4F20101884205D040F20041C4F20101E8
:10168000884206D1816801F00701062904BF0020C5
:101690007047016841F001010160002070470000BF
:1016A00080B590F83C20012A4FF0020200F0C28081
:1016B00080F83D20D0F800C04FF67772DCF8083093
:1016C00023EA0202CCF808200B684F2B28DC1F2BE2
:1016D00044DD202B45D0302B43D0402B40F0AC8054
:1016E000D1F804E0C968DCF82030DCF8202022F0D2
:1016F0000102CCF82020DCF8182022F0F00242EAA7
:10170000011123F00A0242EA0E02CCF81810CCF8BC
:101710002020DCF8081041F0470121F0300180E082
:101720006F2B27DDB3F5005F48D0B3F5805F7AD02B
:10173000702B40F08180D1E901E3C968DCF8082012
:1017400043EA0E0322F47F4243EA01211143CCF81D
:101750000810DCF8081041F0770162E00BB1102BA3
:101760006AD1DCF8081021F07001194341F007013B
:1017700057E000BF502B35D0602B5DD1D1F804E08D
:10178000C968DCF8203023F01003CCF82030DCF8F6
:101790001830DCF8202023F4704322F0A00243EA42
:1017A000013142EA0E12CCF81810CCF82020DCF8F7
:1017B000081041F0670121F0100132E0D1E901E3A6
:1017C000C968DCF8082043EA0E0322F47F4243EAAA
:1017D00001211143CCF80810DCF8081041F48041D5
:1017E0001FE000BFD1F804E0C968DCF82030DCF865
:1017F000202022F00102CCF82020DCF8182022F072
:10180000F00242EA011123F00A0242EA0E02CCF889
:101810001810CCF82020DCF8081041F0570121F016
:101820002001CCF808100022012180F83D10002191
:1018300080F83C10104680BD0122F5E7704700009B
:1018400010B5016804460869800744BFC8685FEAAC
:10185000807039D40869400744BFC8685FEA4070A7
:101860003ED40869000744BFC8685FEA007045D4E9
:101870000869C00644BFC8685FEAC0604AD4086906
:10188000C0071CBFC8685FEAC07051D10869000674
:1018900044BFC8685FEA006052D40869400644BF8C
:1018A000C8685FEA406053D40869800646BFC868CC
:1018B0005FEA806010BD6FF0200220460A61BDE83B
:1018C0001040FFF7D7BD00BF6FF002000861012094
:1018D00020778869800743D02046FFF7AFFF45E0B7
:1018E0006FF00400086102202077886910F4407FBF
:1018F00040D02046FFF7A2FF42E000BF6FF0080093
:10190000086104202077C86980073DD02046FFF792
:1019100095FF3FE06FF01000086108202077C8694C
:1019200010F4407F3AD02046FFF788FF3CE000BF2C
:101930006FF001000861204600F030FA2168A5E749
:101940006FF0800008612046FFF792FD2168A4E750
:101950006FF040000861204600F022FA2168A3E7FA
:10196000204600F04BF8204600F08CF9216800205A
:1019700020776FE7204600F041F8204600F082F91A
:101980002168002020776CE7204600F037F82046D9
:1019900000F078F921680020207769E7204600F000
:1019A0002DF8204600F06EF921680020207766E7C8
:1019B00080B586B00068B0F1804F01D006B080BD20
:1019C000002043F630010190C4F202010A6842F09F
:1019D00001020A600968022201F0010101910199E6
:1019E0000121CDE90220CDE9040100200191C4F2DA
:1019F000020001A9FEF760FD06B080BD704700003F
:101A00002DE9F04390F83C30012B04BF0220BDE8E3
:101A1000F0834FEAB202032A00F2FC80DFE802F012
:101A2000023E7EBE036840F200471A6A43F48065B6
:101A300022F001021A621C6A1A46D3F804E052F836
:101A400018CF8E6824F00204C4F20107BD4244EAB4
:101A5000060405D1CE6824F00C0426F004063443B5
:101A60000E68BD4207D1D1E905572EF4407E45EA04
:101A70000E0545EA070E2CF073073743C3F804E060
:101A80009F614F6809695F631C629F6947F008079F
:101A90009F619F6927F004079F61B1E0036840F2EE
:101AA00000481A6A43F4806522F010021A621C6A28
:101AB0001A46D3F804C052F818EF8F6824F02004B7
:101AC000C4F20108454544EA071407D1CF686FF016
:101AD000400624F0C00406EA07163443D1F800900B
:101AE000454506D1D1E905562CF440672E4347EA17
:101AF000860C2EF4E64747EA0927C3F804C09F6125
:101B00004F6809699F631C629F6947F400679F6182
:101B10009F6927F480679F6171E000BF036840F20E
:101B200000481A6A43F4806522F480721A621C6AC3
:101B30001A46D3F804C052F81CEF8F6824F40074DE
:101B4000C4F20108454544EA072408D1CF6840F2B1
:101B5000FF463F0224F4406427EA06063443D1F8E6
:101B60000090454506D1D1E905562CF440572E4347
:101B700047EA061C2EF0730747EA0907C3F804C0BA
:101B8000DF614F680969DF631C62DF6947F008079E
:101B9000DF61DF6927F00407DF6131E0036840F2AD
:101BA00000451A6A43F4806722F480521A621A468A
:101BB000D3F820C05C6852F81CEFD1F800808E6822
:101BC000C4F20105AF4204D14D6924F4804444EAD3
:101BD00085142CF4005747EA06372EF4E64646EA09
:101BE00008265C60DE614E6809691E641F62DF6959
:101BF00047F40067DF61DF6927F48067DF6109026E
:101C00001368194311600021002280F83C20084627
:101C1000BDE8F0830121002280F83C200846BDE8A1
:101C2000F0830000002804BF0120704710B504466F
:101C300090F83D0028B9002084F83C00204600F0D0
:101C40001FF8022084F83D002068211D00F0C6FA2C
:101C5000012084F8460084F83E0084F83F0084F8B0
:101C6000400084F8410084F8420084F8430084F87E
:101C7000440084F8450084F83D00002010BD0000B9
:101C8000704700007047000041B1082910D00429B6
:101C900014BF00F1410200F13F020BE090F83E203A
:101CA000012A1CBF01207047022280F83E2013E069
:101CB00000F140021278012A1CBF01207047022265
:101CC000082907D0042914BF80F8412080F83F205C
:101CD00002E000BF80F84020006801F01F010122EF
:101CE000036A02FA01F123EA01020262026A114365
:101CF00041F2FF72C4F20002904201620CDC40F239
:101D0000FF71C4F20001884214DCB0F1804F37D07B
:101D100040F2004116E000BF40F2FF31C4F2010181
:101D2000884215DC41F60001C4F20001884227D048
:101D3000002115E040F60001C4F2000188421FD0E6
:101D400040F60041C4F20001884219D01FE000BFF4
:101D500044F20001C4F20101884211D040F2004176
:101D6000C4F20101884212D1416C40F2004340F4B8
:101D70008062C4F2010341F400419A42416406D1F9
:101D8000816801F00701062904BF0020704701683F
:101D900041F0010101600020704700007047000021
:101DA00070470000002804BF0120704770B504464A
:101DB00090F83D0028B9002084F83C00204600F04F
:101DC0006FF8022084F83D002068D4E902C2D4F8FC
:101DD00010E0C56804F1180625F00C05C56005691A
:101DE0004ACE25F47C55294319433143114341F42C
:101DF00000610161C16849F20C629143626941EA84
:101E00000C0141EA0E01114341F40041C1604169F6
:101E100041F2004340F48062C4F2010321F44071B6
:101E20009A42416102D1FFF7D1F801E0FFF7BAF819
:101E3000D4E900531921A0FB01015A00DB0FFEF782
:101E400031FA48F21F51C5F2EB11A0FB01235A09E8
:101E50004FF69C73C1F6FF7302FB0300322303EBC2
:101E6000C000A0FB01014FF4F87000EA111000EB74
:101E70000210C1F342110844A8602869012120F42E
:101E800080402861686920F02A006861E86840F4B1
:101E90000050E8600020206484F83D1070BD000010
:101EA0002DE9F04385B0006844F60005C4F2000552
:101EB000A84203D005B0BDE8F08300BF002643F67A
:101EC00030000096C4F2020001696C4641F48021A2
:101ED000016101694FF0020801F48021009100992D
:101EE000009601684FF0030941F0020101600168AA
:101EF000072701F00201009100990096016841F066
:101F0000080101600068214600F008000090009878
:101F10004FF48050009005F5DE30CDE90186CDF814
:101F20000C900497FEF7C8FA4FF44070CDE9000812
:101F300005F5E2302146CDE902690497FEF7BCFAC7
:101F400005B0BDE8F08300002DE9F041044690F8AB
:101F50003D0001280ED10D4600294FF0010000F090
:101F6000C4801646002A08BFBDE8F08194F83C0002
:101F7000012803D10220BDE8F08100BF012084F8D0
:101F80003C00002020641220984684F83D00FEF7B3
:101F900073FB26856685A1680646B1F5805F02D190
:101FA0002069002860D02F460025608D00285FD072
:101FB00018F1010018D0B8F1000F37D121680BE0FB
:101FC00035F8020B00276FF35F204860608D013801
:101FD0006085608D00284CD0086800066ED5002F03
:101FE000EED017F8010BF0E7216802E00868000660
:101FF00009D40868000606D4086800065CBF0868B3
:102000005FEA0060F2D51FB117F8010B05E000BFD1
:1020100035F8020B00276FF35F204860608D0138B0
:102020006085608D0028E4D123E000BF216800BFF7
:102030000868000606D4FEF71FFB801B2168404598
:10204000F6D93BE017B117F8010B04E035F8020BA5
:1020500000276FF35F204860608D01386085608DD8
:102060000028E5D105E000BF0027608D00289FD142
:102070002168086840061ED4B8F1000F1ED018F180
:1020800001000FD10868400615D4086840065CBFFF
:1020900008685FEA40600ED4086840064FF0000010
:1020A000F0D51CE0FEF7E8FA801B2168404505D812
:1020B00008684006F6D5002011E000BFC86820F08F
:1020C0008000C860C86820F02000C860C86820F49C
:1020D0008070C860486920F0010048610320012138
:1020E00084F83D10002184F83C10BDE8F081000028
:1020F000FEE70000FEE70000FEE70000704700007A
:1021000070470000FEF7BEBAB0B594B0002443F6A5
:102110004000CDE90B44CDE909440694CDE90444DF
:10212000CDE902440194C4F202000168022541F0A5
:1021300080510160006800F080500190019847F2E2
:1021400000000194C4F20000016841F440410160C4
:10215000006800F4404001900198012007904FF47E
:10216000A02008904FF480000E9004200F90A8202B
:10217000CDE910050720CDE9120507A80D95FEF75A
:102180008DFF28B1EFF3108072B600BFFEE700BFED
:102190000F20CDE902054FF4A05005904FF4805078
:1021A000069002A805210494FEF74CFE20B1EFF33F
:1021B000108072B6FEE700BF14B0B0BD4EF6885076
:1021C000CEF20000016841F4700101607047000028
:1021D00040F2C850C2F20000FFF732BB10B540F623
:1021E000FF3E0368C4F2000E40F2004C7045C4F29A
:1021F000010C27DCB0F1804F31D040F20042C4F234
:10220000000290422BD040F60002C4F2000290423D
:1022100025D041F6FF72C4F20002904229DC7045DD
:102220003CDCB0F1804F5FD040F20042C4F20002CB
:10223000904259D040F60002C4F20002904253D0BE
:1022400056E000BF40F60042C4F20002904206D0C1
:10225000604504D00022C4F201029042D9D14A68FC
:1022600023F07003134341F6FF72C4F20002904260
:10227000D5DD43F6FF72C4F20102904222DC42F245
:102280000002C4F2000290422ED00022C4F20102E9
:10229000904229D0604527D02AE000BF40F6004296
:1022A000C4F2000290421FD041F60002C4F20002C4
:1022B000904219D041F60042C4F20002904213D07D
:1022C00016E000BF44F20002C4F2010290420BD0BB
:1022D00044F60002C4F20102904205D044F20042EA
:1022E000C4F20102904203D1CA6823F4407313433D
:1022F00023F080024B69D1F800E08C681A43026039
:10230000C46240F48062C0F828E0624504BF0969F5
:1023100001630121416110BD82B00499DDF808C05C
:10232000012940F64051C0F203016FD1826B4FF694
:10233000BF7322F480328263C268CFF6BD731A4045
:10234000C260C2680B9B22F44012012BC26003D111
:10235000C26842F48012C26000220092009A0132E8
:102360000092009A8A4200F2A9800269002A1ED4D3
:10237000009A01320092009A8A4200F29F8002691C
:10238000002A14D4009A01320092009A8A4200F284
:1023900095800269002A0AD4009A01320092009ABC
:1023A0008A4200F28B800269B2F1FF3FD6DC002244
:1023B0000092026942F001020261009A0132009229
:1023C000009A8A427AD80269D2071AD0009A01325A
:1023D0000092009A8A4271D80269D20711D0009AFD
:1023E00001320092009A8A4268D80269D20708D066
:1023F000009A01320092009A8A425FD80269D2079D
:10240000DBD10021BCF1010F72D169E0C268089BE9
:1024100042F04002C26000220192019A0132019210
:10242000019A8A4250D80269002A1BD4019A0132CB
:102430000192019A8A4247D80269002A12D4019A6D
:1024400001320192019A8A423ED80269002A09D4D7
:10245000019A01320192019A8A4235D80269B2F199
:10246000FF3FDADC00220192026942F001020261C0
:10247000019A01320192019A8A4225D80269D20753
:102480001AD0019A01320192019A8A421CD802693B
:10249000D20711D0019A01320192019A8A4213D8CF
:1024A0000269D20708D0019A01320192019A8A4248
:1024B0000AD80269D207DBD1002106E00321BCF172
:1024C000010F15D10CE000BF0321826B002B14BF5C
:1024D00022F4803242F480328263BCF1010F07D1D2
:1024E000826842F006028260826842F020028260C6
:1024F000084602B0704700000146D0F8000E20F0F8
:102500000300C1F8000ED1F8040840F002020020D8
:10251000C1F80428704700002DE9F04F83B0DDF8C2
:102520004C800E9F0022B8F1000FC0F80421C0F8C3
:102530000821C0F80C21C0F81021C0F81421C0F8FF
:102540001821C0F81C21C0F82021C0F82421C0F8AF
:102550002821C0F82C21C0F83021C0F83421C0F85F
:102560003821C0F83C2107D0826B00F5006B42F4A3
:102570000012826314E000BFD0F8042800F5006B5D
:1025800042F00202C0F80428826B22F40012826337
:10259000026842F040020260066846F0800606606B
:1025A0000026C0F8006ED0F80068012FC0F800685F
:1025B00006D1DBF80070002B18BF47F0010703E0DD
:1025C000DBF8003043F00307DDF83CE0DDF8309045
:1025D00040F64055C0F203050023C0F8007801938F
:1025E000019B01330193019BAB4249D80369002B46
:1025F0001BD4019B01330193019BAB4240D803697B
:10260000002B12D4019B01330193019BAB4237D8BD
:102610000369002B09D4019B01330193019BAB4259
:102620002ED80369B3F1FF3FDADC002301934FF4A6
:1026300084630361019B01330193019BAB421FD86B
:1026400003699B061AD5019B01330193019BAB42A1
:1026500016D803699B0611D5019B01330193019B99
:10266000AB420DD803699B0608D5019B013301934A
:10267000019BAB4204D803699B06DBD4002400E035
:10268000012400230293029B01330293029BAB427D
:1026900048D80369002B1BD4029B01330293029B91
:1026A000AB423FD80369002B12D4029B0133029343
:1026B000029BAB4236D80369002B09D4029B01333D
:1026C0000293029BAB422DD80369B3F1FF3FDADCE2
:1026D0000023029310230361029B01330293029BA8
:1026E000AB421FD80369DB061DD5029B0133029361
:1026F000029BAB4216D80369DB0614D5029B01335B
:102700000293029BAB420DD80369DB060BD5029BFB
:1027100001330293029BAB4204D80369DB06DBD48E
:1027200001E000BF01244FF0000A0029CBF810A0FF
:10273000CBF814A0CBF81CA000F00681D0F800392B
:102740004FF0006707EA13134FF67F324E1EC0F8B2
:102750000039C0F810A9C0F808297BD08B1E032BC4
:1027600006F003097246009404D22024B9F1000F48
:102770003FD165E026F0030400234FF0904E4FF662
:102780007F384FF0000C00BF00EB0C05D5F8207926
:10279000043C0EEAE777C5F82079C5F83039C5F86A
:1027A0002889D5F840790CF1800C0EEAE777C5F856
:1027B0004079C5F85039C5F84889D5F860790EEAEE
:1027C000E777C5F86079C5F87039C5F86889D5F834
:1027D00080790EEAE777C5F88079C5F89039C5F8B1
:1027E0008889D1D1DDF84C800CF12004B9F1000FBB
:1027F00026D000F510673D594FF0904C0CEAE57576
:102800003B193D5100244FF67F3EB9F1010F1C6189
:10281000C3F808E014D01D6AB9F1020F0CEAE5779D
:102820001F621C63C3F828E00AD01F6C4FF090456C
:1028300005EAE7771F6400271F654FF67F379F641F
:10284000DDF83090009C002996464FF67F324FF01D
:10285000006779D0D0F8003B002E07EA1313C0F8C8
:10286000003B4FF00003C0F8103BC0F8082B6BD0C2
:102870000239032906F0030C04D22023BCF1000F17
:102880003DD161E0009426F0030400234FF090470F
:102890004FF67F36002100BF4518D5F8202B043CA9
:1028A00007EAE272C5F8202BC5F8303BC5F8286B63
:1028B000D5F8402B01F1800107EAE272C5F8402B00
:1028C000C5F8503BC5F8486BD5F8602B07EAE272B3
:1028D000C5F8602BC5F8703BC5F8686BD5F8802B40
:1028E00007EAE272C5F8802BC5F8903BC5F8886B03
:1028F000D2D1009C01F12003BCF1000F24D000F5DF
:102900003062D6584FF0904707EAE676D118D65095
:1029100000264FF67F33BCF1010F0E618B6013D0A0
:102920000A6ABCF1020F07EAE2720A620E638B6266
:102930000AD00A6C4FF0904303EAE2720A64002264
:102940000A654FF67F328A64DBF81010B9F1000F88
:1029500021F48071CBF810106FF08041C0F818A0FE
:10296000416103D1816941F010018161816943F6C0
:102970000002C8F23C021143BEF1000F816103D096
:10298000816941F008018161B8F1010F05D18169C8
:1029900041F0804141F004018161204603B0BDE86F
:1029A000F08F00000146806820F0010200208A605C
:1029B00070470000B0B50446C06820F0C040E06039
:1029C00091B1012926D1E068002540F00050E06077
:1029D0000120FDF75DFD6069C00705F1010014D11C
:1029E000312D0546F4D310E0E068002540F080402A
:1029F000E06000BF0120FDF74BFD6069C00705F1F5
:102A0000010002D0312D0546F4D33238B0FA80F0FF
:102A10004009B0BD0120B0BDFEE70000000000008D
:102A200090B040F6000BC4F2020BFDF739FEFFF741
:102A30006BFB002443F63000CDE905440C94C4F24E
:102A400002000168ABF5806741F004010160016894
:102A5000002201F004010C910C990C94016844F2DD
:102A6000810A41F080010160016801F080010C9150
:102A70000C990C94016841F001010160016801F0BA
:102A800001010C910C990C94016841F00201016064
:102A9000016801F002010C910C990C94016841F05D
:102AA00008010160016801F008010C910C990C9477
:102AB000016841F040010160006844F2810100F0CA
:102AC00040000C900C983846FDF7D0FD0BF5805572
:102AD0002846402100224FF04009FDF7C7FD584627
:102AE0004FF4807100224FF48078FDF7BFFD4FF462
:102AF000005002904FF4881002AECDE9030458460E
:102B00003146FDF7D9FCCDF808A04FF0010A384650
:102B10003146CDE903A40594FDF7CEFC28463146A5
:102B2000CDE9029ACDE90444FDF7C6FC8020CDE949
:102B30000204284631460494FDF7BEFC584631464F
:102B4000CDE9028ACDE90444FDF7B6FC4FF40070EC
:102B5000CDE90204584631460494FDF7ADFC40F23D
:102B6000C850C2F200004FF0804140F2E7330F94AA
:102B7000CDE90D44CDE90A44CDE90744CDE905444A
:102B800040F28F6280E81600C0E903348461FEF7EA
:102B9000CFFC28B1EFF3108072B600BFFEE700BF94
:102BA0004FF480500C9040F2C850C2F200000CA9C3
:102BB000FEF776FD20B1EFF3108072B6FEE700BF9E
:102BC00040F2C850C2F20000FFF72CF820B1EFF33A
:102BD000108072B6FEE700BF40F2C850C2F200009B
:102BE0000AA9FEF749FC28B1EFF3108072B600BFC6
:102BF000FEE700BF6020029040F2C8500024C2F2FD
:102C0000000002A90022CDE903440694FEF7F8FE75
:102C100020B1EFF3108072B6FEE700BF40F2C85655
:102C2000C2F200063046FEF7C3FE40F21060ABF57C
:102C3000FC31C2F200004FF6FF73CDE902440222DC
:102C400080E81600C3608461FEF772FC20B1EFF3E8
:102C5000108072B6FEE700BF40F21067C2F20007B4
:102C600002A93846FEF708FC20B1EFF3108072B6D7
:102C7000FEE700BF40F2700AC2F2000AABF5E03195
:102C8000504640F8081F4FF4E13100240C22C0E9FF
:102C90000114C0E90344C0E90524C0E90744FFF773
:102CA00081F828B1EFF3108072B600BFFEE700BFD5
:102CB00040F2BC00C2F200004FF0A0410622C0E981
:102CC00000120221C0E90314C0E906140121C0E981
:102CD0000844C0E90B14FDF7A3FD28B1EFF3108001
:102CE00072B600BFFEE700BF0AF1080592A12846B0
:102CF00033226423FFF728F9304600210024FEF731
:102D0000C3FFDAF804004D21CAE9000430684163CA
:102D10004FF4FA70FDF7BCFB3846FEF76FFC4FF43A
:102D2000FA70FDF7B5FB91A1284636226423FFF720
:102D30000BF99FED730B9FED741B9FED9CBA9FEDFC
:102D40009CCA9FED73DB9FED74EB9FED75FB9FEDD0
:102D5000768B9FED779B51EC100B55EC116BF7EEDA
:102D600008CACDE9001083E0406A001B00EB400078
:102D700001F0A8FADDE9003201F004F932462B46F1
:102D800001F000F901F018F800EE100ABAEE0E1A80
:102D900030EE010A9FED831A30EE2C0AC0EE01BA24
:102DA0009FED811A2AEE8B0A2BEE811A30EE010A72
:102DB0002AEE0C1A71EE00AA1AEE900A01F026FE15
:102DC00041EC100B00F030FB51EC100B53EC1D2BC1
:102DD00001F0C8FA41EC100B00F006F957EC1E8B1D
:102DE00051EC100B42463B4601F0BCFA53EC1F2B52
:102DF00001F0C8F841EC100B00F0A6FA51EC100BF2
:102E000001F01AFADAF804408146CAE90040C0F13C
:102E10005D0001F040FA42463B4601F0B3F853EC46
:102E2000182B01F09FFA41EC100B00F08DFA51ECD9
:102E3000100B01F001FA40F2C851C2F2000109681A
:102E400019304863A9EB040001F025FA53EC192B63
:102E5000DA0F62F3DF7101F0EFF900EB8000BE30B2
:102E6000FDF716FB40F21067B0EE6BAAC2F2000746
:102E700058464FF480710122FDF7F8FB00200290C4
:102E80000298BE2818DC00BF029801300290029818
:102E9000BE2811DC0298013002900298BE280BDC9B
:102EA0000298013002900298BE2805DC0298013099
:102EB00002900298BF28E7DB58464FF48071002249
:102EC000FDF7D4FB58464FF40071FDF7C9FB00280D
:102ED000F8D03868446A00BF58464FF40071FDF7D7
:102EE000BFFB0128F8D03868416AA142BFF43CAF6B
:102EF000406A001B00F5803038E700BF00BF00BF0C
:102F00001F85EB51B85E57400000000000004D40A7
:102F1000CF40543AB2670140000000000080664094
:102F200000000060FB210940000000000000594043
:102F300000000000000000003D3D3D3D3D3D3D3DA9
:102F40003D3D3D3D3D3D3D3D3D3D3D2070726F670A
:102F5000207374617274203D3D3D3D3D3D3D3D3DDE
:102F60003D3D3D3D3D3D3D3D3D3D0A003D3D3D3D01
:102F70003D3D3D3D3D3D3D3D3D3D3D3D3D3D3D209E
:102F800074696D65727320737461727473203D3D52
:102F90003D3D3D3D3D3D3D3D3D3D3D3D3D3D3D3D61
:102FA0003D0A00000000C8C2D9A4C2BF31F47FBFEF
:102FB000AA33A2BD03B401984100009850EAC12091
:102FC00018BF04204A0D18BF40F0010040F2FF7204
:102FD000B2EB515F08BF40F00200012808BF052096
:102FE00002B070470000000070B5C1482DED020B23
:102FF0002DED0E8B82B0119D25F000449FEDBEDBC0
:103000009FEDBFEB84423EDBA4F140511098A1F14B
:103010007F6108430FD0BC48844202DC28D110985D
:1030200030B39DED100B02B0BDEC0E8B02B0BDE8CD
:10303000704000F045BE9DED100B53EC1D2B51EC84
:10304000100B01F08FF99DED100B41EC180B53ECB8
:103050001E2B51EC100B01F085F953EC182B00F0EE
:10306000DDFE41EC100B02B0BDEC0E8B02B070BD6A
:103070000120FDF7BEF902B0BDEC0E8B02B0BDE839
:10308000704000F029BEA1489FEDA18B844256DA22
:103090009DED100BB4F1795F0ADA51EC100BFFF7DC
:1030A00089FF042808BF00F027FE9DED100BDAE72A
:1030B00053EC102B51EC100B01F054F941EC190BAF
:1030C00095480621B0EE490AF0EE690A784400F00E
:1030D000E3FC53EC192B51EC100B01F043F941ECDC
:1030E0001A0B8E48B0EE490AF0EE690A04217844C2
:1030F00000F0D2FC53EC192B51EC100B01F032F91B
:1031000053EC182B00F08AFE41EC100B51EC1A0B1B
:1031100053EC102B00F036FFCDE900019DED000BC4
:1031200053EC102B9DED100B51EC100B01F01AF924
:103130009DED101B53EC112B00F070FED2E09DEDC5
:10314000100B51EC100B00F0E7FD53EC182B01F0C5
:1031500097FA9FED730BCDE9000153EC102B9DED19
:10316000000B51EC100B01F0FDF841EC190B6E480F
:103170000621B0EE490AF0EE690A784400F08CFCB2
:1031800053EC192B51EC100B01F0ECF841EC1B0B3C
:103190006648B0EE490AF0EE690A0421784400F06E
:1031A0007BFC53EC192B51EC100B01F0DBF853ECCA
:1031B000182B00F033FE41EC1C0B51EC190B00F006
:1031C000B7FD41EC180B5A489FED5BABA04222DCE7
:1031D00053EC1C2B51EC1B0B00F0D4FECDE900018D
:1031E0009DED000B51EC180B53EC102B01F0BAF8CD
:1031F00053EC182B00F012FE53EC1A2B01F0B2F82E
:1032000053EC1D2B01F014FB53EC1E2B01F038FA8C
:1032100041EC100B5FE08DED008B002000909DEDE8
:10322000000B51EC180B53EC102B00F0F7FD9DED4B
:10323000000B41EC1E0B53EC102B51EC100B01F06A
:1032400091F853EC192B01F01BFA53EC1E2B00F0F4
:1032500099FE41EC190B53EC1C2B51EC1B0B00F0AD
:1032600091FE41EC1B0B53EC1A2B51EC190B01F0A6
:1032700079F853EC1D2B01F003FA41EC190B53ECD8
:103280001A2B51EC180B01F06DF853EC1B2B01F0CD
:1032900069F853EC192B01F0CBFA9DED000B41ECD2
:1032A000180B53EC1A2B51EC100B01F05BF89FED4F
:1032B000249B53EC192B01F0E3F941EC100B51EC7A
:1032C000180B53EC102B01F0B3FA53EC192B01F04F
:1032D000D7F941EC100B002D3FF7C5AE51EC100BA8
:1032E00000F05DFD41EC100BBDE6000000000000A9
:1032F0000000F03F00000000075C143326A6913C5C
:10330000182D4454FB21F93F0000F07F0000E03FFE
:10331000000000000000F03F481A0000561A0000AC
:10332000000000000000E03F9A190000A81900000A
:103330003333EF3F000000000000000000000040B9
:10334000182D4454FB21E93F10B52DED020B2DED56
:10335000088B84B09DED0C0B51EC100B01F036F98D
:1033600041EC180B9DED0C0B53EC182B51EC100B92
:1033700001F05EFA41EC190B0D989FED290B10F04E
:10338000004F53EC102B51EC190B9FED21AB9FED2F
:1033900022BB0ED000F0AAFF0ED953EC1B2B51EC30
:1033A000190B01F0DDF81CD214E000BF41EC180B42
:1033B00017E000F09BFF06D253EC1A2B51EC180BD0
:1033C00001F036FAF2E753EC1B2B51EC190B01F02C
:1033D000C7F806D853EC1A2B51EC180B00F01EFD61
:1033E000E4E78DED028B9DED0C0B18EE901A10EEBC
:1033F000900A8DED000B61F31E0003909DED020B12
:1034000004B0BDEC088B02B010BD0000000000004D
:10341000000000000000F03F000000000000E03F5E
:10342000000000000000E0BF10B52F499FED2C1BED
:103430002DED020B84B0059820F000408842DCBFDF
:1034400000209DED040B32DD2849884209D1049803
:1034500040B94FF00100FCF7CCFF00F03DFC06B096
:1034600010BD05DB9DED040B00F02AFC06B010BD7D
:1034700068469DED040B00F03BF810F0030011D0FE
:10348000012818D09DED021B9DED000B02281AD0DB
:1034900000F04AFA51EC100B00F081FC06B041EC50
:1034A000100B10BD9DED021B9DED000B012000F0E7
:1034B0006FFB06B010BD9DED021B9DED000B00F0F3
:1034C00033FA06B010BD012000F062FB51EC100B86
:1034D00000F065FC06B041EC100B10BD00000000D0
:1034E0000000000000000000FB21E93F0000F07F29
:1034F0002DE9F14F04462DED020B2DED088B8AB01E
:103500009FEDE70B80ED020B139EE74826F0004588
:1035100085420ADC9DED120B002084ED000B0AB001
:10352000BDEC088B03B0BDE8F08FE0489FEDE0AB49
:103530009FEDE1BBA84247DDE14F9FEDE39B9FED8F
:10354000E48B9DED120B53EC1A2B51EC100B002E5B
:103550001CDD01F06DF941EC100BBD4208D053ECBD
:103560001B2B51EC100B01F063F9C4E900010BE0D7
:1035700053EC192B51EC100B01F05AF953EC182BAA
:1035800001F056F9C4E900010120C8E700F046FC4B
:1035900041EC100BBD4208D053EC1B2B51EC100B2F
:1035A00000F03CFCC4E900010BE053EC192B51EC9A
:1035B000100B00F033FC53EC182B00F02FFCC4E987
:1035C00000014FF0FF30AAE7C348A84279DB9DED28
:1035D000120B51EC100B00F09FFB41EC180B9FED10
:1035E000C00B53EC102B00F0BDFE9FEDBF1B53EC46
:1035F000112B00F013FC00F01FFE074600F04BFEFD
:1036000041EC190B53EC1A2B00F0ACFE53EC182BC9
:1036100001F036F841EC180B53EC1B2B51EC190B55
:1036200000F0A0FEDFF8C8A241EC100B4FEA1558DD
:103630000125FA4453EC102B51EC180B01F0F8F86B
:10364000032DC4E900013DD0C1F30A5005EB45113B
:10365000A8EB00001139814234DA0AEB051BB0EE09
:1036600048AA9BED000BF0EE68AA53EC102B51EC2E
:10367000190B00F077FE41EC1B0B51EC1A0B53ECCD
:103680001B2B01F0D5F841EC180B51EC1A0B53EC45
:10369000182B01F0CDF853EC1B2B01F0C9F89BED72
:1036A000020B41EC1A0B53EC102B51EC190B00F0F0
:1036B00059FE53EC1A2B01F0BBF841EC100B6D1CBA
:1036C000B8E70EE0002EA8BF3846BFF628AF94ED4D
:1036D000000B51EC100B00F062FBC4E900017842D2
:1036E0001DE7C6F3130040F4801EC6F30A50A0F293
:1036F000F530471100F01F05C5F12000DDF848B096
:1037000008900020069007900520EC467949002D8E
:1037100007EB0002794408BF51F8221009D051F894
:10372000223001EB8201AB404A68089922FA01F18C
:103730001943A1FB0E26A1FB0B131A449A4234BF76
:103740000123002303EB06080CEB8003D3E901A659
:103750000E448E4234BF0121002192448A4411B1AB
:10376000924502D903E0924501D2012100E00021F7
:10377000C3E901A641444CF82010011EA0F101004C
:10378000C4DC029800F10050850F0298DDE9036760
:103790008000DDF8148000F07EFD41EC1A0B30460D
:1037A00000F090FD9FED541B53EC112B00F0DAFD5F
:1037B00041EC1B0B384600F085FD9FED511B53EC8F
:1037C000112B00F0CFFD41EC180B404600F07AFDC4
:1037D0009FED4D1B53EC112B00F0C4FD41EC190B78
:1037E00051EC180B53EC192B00F018FB53EC1B2B6E
:1037F00000F014FB53EC1A2B00F010FBCDE908018C
:10380000002008909DED080B53EC1A2B51EC100B87
:1038100001F00EF853EC1B2B01F00AF853EC182BB7
:1038200001F006F853EC192B00F02AFF9FED381B2E
:1038300053EC112B00F096FD9FED370B41EC180B6C
:1038400053EC102B9DED080B51EC100B00F08AFD92
:1038500053EC182B00F0E2FA9FED310B41EC180B02
:1038600053EC102B9DED080B51EC100B00F07AFD82
:1038700053EC182B00F0D2FA41EC100B139810F017
:10388000004F06D06D4251EC100B00F088FA41EC6D
:10389000100B284684ED000B41E6000000000000FC
:1038A0000000000000000000FB21E93F7CD902403D
:1038B00000004054FB21F93F3163621A61B4D03DEE
:1038C000FB21F93F000000000000601A61B4D03D08
:1038D0007370032E8A19A33BFB21394100000000BD
:1038E00083C8C96D305FE43F000000000000E03F86
:1038F00062150000B0140000000000000000103E3F
:10390000000000000000103C000000000000103A21
:10391000182D4454FB21F93D3326A611460B113CCA
:1039200000000054FB21F93D10B52DED040B2DEDE9
:10393000088B82B0B0EE419AF0EE619A0B9820F0BD
:1039400000449FED4BABB4F1795F11DA9DED0A0BAA
:1039500051EC100B00F070FC002801BFB0EE4A0AD9
:10396000F0EE6A0A02B0BDEC088B04BF04B010BDD3
:103970009DED0A0B53EC102B51EC100B00F0F2FCF8
:1039800041EC180B3C480621B0EE480AF0EE680AFC
:10399000784400F081F853EC182B51EC100B00F038
:1039A000E1FC9DED0A0B41EC1B0B53EC192B51EC88
:1039B000100B00F0D7FC41EC190B53EC1B2B51EC16
:1039C000180B00F0CFFC53EC192B00F031FF9FEDEA
:1039D0002C0B41EC190B53EC102B51EC180B00F095
:1039E000C1FC41EC100B2848844210DA53EC192B2F
:1039F00051EC100B00F01CFF53EC1A2B00F040FEB2
:103A000041EC100B02B0BDEC088B04B010BD1F4898
:103A1000A042BCBF9FED1E1B8DED001B06DBA4F575
:103A200000100190002000909DED001B51EC100B48
:103A300053EC112B00F0FCFE9DED000B41EC180B3C
:103A400053EC102B51EC1A0B00F0F2FE41EC1A0B68
:103A500053EC192B51EC180B00F0EAFE53EC1A2B27
:103A600000F00EFE41EC100BCCE70000000000005F
:103A7000000000000000F03FD41100000000000032
:103A8000000000000000E03F3333D33F0000E93F77
:103A9000000000000000D23F70B504462DED028BFF
:103AA0004D1E00EBC500B0EE408AF0EE608A90ED4E
:103AB000000B35F0060017D053EC182B51EC100B0F
:103AC00000F050FC41EC100B6D1E04EBC50090EDB6
:103AD000001B51EC100B53EC112B00F09FF941EC43
:103AE000100B35F00600E7D1022D36D0042D1CD086
:103AF000062D1CBFBDEC028B70BD53EC182B51EC96
:103B0000100B00F02FFC94ED0A1B53EC112B00F06E
:103B100085F953EC182B00F025FC94ED081B53ECB1
:103B2000112B00F07BF941EC100B53EC182B51ECEE
:103B3000100B00F017FC94ED061B53EC112B00F05A
:103B40006DF953EC182B00F00DFC94ED040B53ECC5
:103B5000102B00F063F941EC100B53EC182B51ECD7
:103B6000100B00F0FFFB94ED021B53EC112B00F047
:103B700055F953EC182B00F0F5FB94ED001B53ECBA
:103B8000112B00F04BF9BDEC028B41EC100B70BD1A
:103B900031B504462DED040B2DED0A8BB0EE41BA84
:103BA000F0EE61BA0B989DED0A0B20F00040B0F1E9
:103BB000795F0DDA51EC100BFFF7FCF9042808BF10
:103BC00000F09AF89DED0A0BBDEC0A8B05B030BDF4
:103BD00053EC102B51EC100B00F0C4FB41EC180B14
:103BE0009DED0A0B53EC182B51EC100B00F0BAFBB7
:103BF00041EC190B2C48B0EE480AF0EE680A05219A
:103C00007844FFF749FF9FED2ACBB0EE40AAF0EED3
:103C100060AA9CB353EC1C2B51EC190B00F0A2FBD7
:103C200041EC1C0B53EC1A2B51EC190B00F09AFBD6
:103C30009FED210B41EC190B53EC102B51EC1B0B9E
:103C400000F090FB53EC192B00F0F2FD53EC182B15
:103C500000F088FB53EC1B2B00F0EAFD53EC1C2B0F
:103C600000F0E6FD9DED0A1B53EC112B00F008FD62
:103C7000BDEC0A8B05B041EC100B30BDFFE753ECF7
:103C80001A2B51EC180B00F06DFB53EC1C2B00F0C1
:103C9000C5F853EC192B00F065FB9DED0A1B53ECA6
:103CA000112B00F0BBF8E3E76410000000000000F7
:103CB000495555555555C5BF000000000000E03F6F
:103CC00010B553EC102B51EC100B00F0A7F841ECA1
:103CD000100B10BD000000009FED050B10B553EC5C
:103CE000102B51EC100B00F04DF941EC100B10BDF6
:103CF00000000000000000009FED050B10B553EC24
:103D0000102B51EC100B00F02DFB41EC100B10BDF3
:103D1000000000000000001082B0CDE9000121F099
:103D2000004001909DED000B02B051EC100B70476C
:103D300000B52DED048B83B041EC190B00F0ACFC09
:103D400041EC180B18EE100A18EE901A8DED008B4E
:103D5000002818BF0120084320F00040C0F17F6018
:103D600000F1E040C00F14D019EE101A19EE900ABD
:103D70008DED009B002918BF0121084320F0004071
:103D8000C0F17F6000F1E040C00F04BF0120FCF7EC
:103D900030FB51EC180B03B0BDEC048B00BD81F07F
:103DA0000041704780F00040704721F000417047AB
:103DB00020F000407047000021F0004201F0004375
:103DC000A2F16052B2F5801F28BFD2F17F6C0BD9EF
:103DD0005FEA001C43EAC20242EB507018BF704712
:103DE00028BF20F001007047B2F5801FBCBF184605
:103DF00070474FEA410C1CF5001F02D2084600F044
:103E000083BE70B500F058FB00000089FFF7F6BFD5
:103E10004FF00040A0F580007047000010B591EA17
:103E2000030F48BF83F0004300F10A85841A71EB49
:103E3000030C05D2121943EB0C03001B61EB0C01C0
:103E40004FEA1154A4EB135CDFF81CE11EEA430FA8
:103E500018BF9EEA445F00F0748021EA045123EA0F
:103E60000E0343F48013DCF1200E32D322FA0CFE51
:103E700010EB0E0023FA0CFE41EB0E01CCF1200EEC
:103E800003FA0EFE10EB0E00CCF1200E51F10001F2
:103E9000B1F5801F32D201EB045112FA0EF2BDE8E7
:103EA000104058BF7047401C38BF5FEA420218BF3D
:103EB0007047002814BF20F0010041F100014FEAD3
:103EC000410313F5001F38BF7047A1F1C04100F056
:103ED00041BB012A43EB0302ACF1200CDCF11F0EC5
:103EE00032BF4FF0000E23FA0CF310EB030041EB4E
:103EF0000451B4EB115FD0D0A1EB045101F5801156
:103F0000490801EB04515FEA30000ED350F1000084
:103F100038BF12FA0EFE08D1BDE81040C9E7401CB8
:103F200038BF5FEA4202CAD1C3E7BDE810404FEA9A
:103F3000410313F5001F38BF7047A1F1C04100F0E5
:103F400009BB9EEA445F08D011EA5E0FBDE810404D
:103F500004BF01F0004100207047BDE8104070B57B
:103F600000F0AAFA64FBBE3E0000E0FF491058BF13
:103F7000C1F140415B1058BFC3F140438B42EFF3A6
:103F8000008070472DE9C04130B4DFF8A4C23CEA9C
:103F9000111418BF3CEA131400F0ED801CEA111450
:103FA00081EA030544EAD57418BF1CEA131500F032
:103FB000C880A4EB050404F17F7404F500344FF0CD
:103FC000004545EAC12145EAC32341EA505143EA8D
:103FD00052534FEAC0204FEAC222994208BF904292
:103FE00000F09D804FEA13650FF24416765D4FEAAC
:103FF000134506FB05F7C7F1807706FB07F74FEA85
:10400000D737A7FB03687642A7FB06CEC8F58038F2
:1040100038BFA8F1010807FB08E6A6FB028C4FF0A9
:10402000000EE6FB03CEDCF1000CCEF1004E38BFF3
:10403000AEF1010EA6FB0C584FF00007E6FB0E8711
:10404000A1FB08C6A0FB07CE16EB0E064FF000053D
:1040500045F10005E1FB076515F1E04E7EBFA4F5D3
:1040600080345FEA46066D4116F1800745F1000590
:104070004FEA172747EA05674FEA15254FEA066614
:10408000A6F1DE46B6F1805F20D9384605EBC47153
:1040900024F0010C01EB0C11BCF1FE6F02D8F0BC56
:1040A000BDE8008124425CBF01F5801E9EEAC47F0A
:1040B00002D4F0BCBDE80081244200F13980A1F1B6
:1040C000C041F0BCBDE8004100F044BA4FEAD02046
:1040D00040EA41504FEAD1214FEAD22242EA43520C
:1040E0004FEAD323A7FB028607FB036605FB0266A4
:1040F0001EEA0E0F58BFA6EB0056B6EB00564FEA6D
:10410000520E4EEAC37E18EB0E0E56EB530EBCD584
:1041100018EB02085E417F1C55F10005B5E74FF42E
:1041200080154FF000074FF000064FF00008ACE795
:1041300001F1C04101F000414FF00000F0BCBDE8CA
:1041400000810CEA131511EA0C1F00D00CE013EAF1
:104150000C1F00F026804FF0000081EA030101F0FF
:104160000041F0BCBDE80081F0BCBDE8004181EA3F
:10417000030100F0EFB9F0BCBDE8004170B500F0FC
:104180009BF900BF097EFC3E00F007B84FF000002D
:1041900081EA030101F00041704781EA030100F068
:1041A000D9B9F0BCBDE8004122494FF0000070478A
:1041B000FFFDFBF9F7F5F4F2F0EEEDEBE9E8E6E4EC
:1041C000E3E1E0DEDDDBDAD8D7D5D4D3D1D0CFCD73
:1041D000CCCBCAC8C7C6C5C4C2C1C0BFBEBDBCBBAC
:1041E000BAB9B8B7B6B5B4B3B2B1B0AFAEADACABA7
:1041F000AAA9A8A8A7A6A5A4A3A3A2A1A09F9F9E81
:104200009D9C9C9B9A999998979796959594939332
:10421000929191908F8F8E8E8D8C8C8B8B8A8989C9
:10422000888887878685858484838382828181804C
:104230000000FF070000F87F4FEA41034FEA5353A5
:10424000A3F58063D3F11E03C8BFD3F1210C0CDDAD
:104250004FF0004242EAC12242EA505232FA03FCD5
:104260008CEAE17CACEBE1707047102BC4BF0020FE
:10427000704703F5787CBCF1FF3F04D06FF000423B
:1042800082EA2100704770B500F016F94992248047
:1042900000207047F2E710F0004248BF4042B0FAF9
:1042A00080F310FA03F10AD0C3F11D0303F5806314
:1042B00002EB03524FEA415002EBD12170474FF01D
:1042C00000007047B0FA80F310FA03F10AD0C3F18E
:1042D0001D0303F580634FEA03524FEA415002EB9E
:1042E000D12170474FF000007047000051EA030CE5
:1042F00017D41CF5801F58BFBCF5801F00F1068045
:10430000994218BF704708BF9042704707D711F510
:10431000801F58BF13F5801F19D4994270478942F6
:1043200070471CF5801F08D5BCF5801FF7D58B4260
:1043300018BF704708BF824270474FF4001C1CEB47
:10434000410F38BF1CEB430F01D28B42704770B551
:1043500000F0B2F8922449004FF000514FF0805322
:10436000FFF704BE70B5DFF848C11CEA111E1EBF7E
:104370001CEA13159EEA0C0F95EA0C0F00F06F80F3
:1043800081EA03044EEAD47EAE4421EA4C1123EACA
:104390004C1341F4801143F48013AEF17F7EA1FBF6
:1043A000024CA0FB0365361955EB0C05A1FB034C31
:1043B0004CF10003A0FB021C16EB0C06654153F107
:1043C0000003094218BF46F0010613F4007F0BD129
:1043D0004FEA03314FEA053041EA155140EA1650E1
:1043E00034036FF003020AE04FEAC3214FEAC5200D
:1043F00041EA555140EA5650F4026FF0020202EBD6
:104400002E4201EB025585EACE710AD05FEA440CD8
:1044100018BF24F0004450F1000041F1000120EAEF
:10442000D47040F2FE7C624500D270BDA84214BF39
:104430004FF080444FF04044002E08BF0024BEF1EE
:10444000806FA8BFA1F1C041BDE8704080F28280BA
:1044500001F1C04101F000414FF0000070470CEA4B
:1044600013159EEA0C0F18BF95EA0C0F06D081EACF
:10447000030E4FF000000EF0004170BD00F01CF87C
:104480008900013E00F007B800F009B84FEA430C7C
:104490005FEA5C5C08D081EA030100F05BB84FEA98
:1044A000410C5FEA5C5CF6D102494FF000007047B6
:1044B0000000FF070000F87F0EF1020E2EF0030E41
:1044C0005EF8046B364205D4012A43EB030515F56B
:1044D000001F12D8012841EB010C1CF5001F0CD85D
:1044E0000ED14FEAD17C0CEB4C0C0CF1020C15F503
:1044F000001F08BF4CEBD37C04E04FF0080C01E038
:104500004FEAD37C0CEB4C0526FA05F606F00706BD
:10451000B6F1040C06D20EEB860CBDE870404CF0F0
:10452000010C6047DFE80CF0090B02024FF000417C
:10453000A1F500214FF0000070BD1946104601287A
:1045400051EB010418BFD4F5001484BF002001F022
:10455000004170BD0808A0F500114FEA3101704715
:1045600053EA010C17D41CF5801F58BFBCF5801FFF
:1045700000F106808B4218BF704708BF8242704727
:1045800007D713F5801F58BF11F5801F19D48B4230
:1045900070479B4270471CF5801F08D5BCF5801FF3
:1045A000F7D5994218BF704708BF904270474FF443
:1045B000001C1CEB430F38BF1CEB410F01D299428A
:1045C00070470FB40CBC03BCFFF7C1BE5FEA410CDF
:1045D0005FEA5C5CACF580635B1C39D4D3F13402D8
:1045E00040F34580B2F1200314DA4FF0010C0CFACD
:1045F00002FCACF10103034020EA0300B3EB5C02D0
:1046000008BF10EA0C0F98BF704710EB0C0041F187
:10461000000170470AD0C3F1200201FA02FC012810
:104620004CF1000021FA03F101FA03F14FF0010C03
:104630000CFA03FCACF1010321EA0301B0F1004FD5
:1046400008BF11EA0C0F4FF0000088BF61447047AB
:10465000B3F1FF3F28BF50EAC12C01F000414FF0F9
:10466000000084BF41F07C5141F470017047B3F504
:10467000806FB8BF704770B5FFF71EFF40DBB6BE56
:1046800010B591EA030F81F000413FF5CFAB83F005
:10469000004300F0D5B800002DE9F04101F5801C81
:1046A000BCF5001FC0F2A9804FEA115C21EA0C5151
:1046B00041F480110CF1FD0C5FEA5C0C0CF5C07C40
:1046C00001D340004941890241EA905187022EA45A
:1046D0008E0EA45D0A0C04FB04F602FB06F6C6F17E
:1046E0004046A4FB0662F60D46EA422606FB06F4A7
:1046F000A4FB01235242C3F1404338BF5B1EA6FB1B
:1047000002420024E6FB0324D20B42EA4446A6FB05
:104710000623A1FB02E2A3FB07E4E3FB6142644240
:10472000C2F1404E38BFAEF1010EA6FB04234FF09C
:104730000002E6FB0E32A2FB03463400E2FB626499
:10474000A1FB06E6A4FB07E8E4FB61687642C8F13A
:10475000405838BFA8F10108A2FB06E4A3FB08E516
:10476000E2FB6854A1FB05E6A7FB04E8E1FB6486D5
:1047700018F1200556F10006A80940EA8660B10943
:10478000A8F11B0808F03F08B8F10A0F1CD901EB8B
:104790000C51BDE8F08100BFFCF5EEE8E2DDD8D3B6
:1047A000CFCBC7C3C0BDB9B6B4B1AEACA9A7A5A3A2
:1047B000A19F9D9B9A9896959392908F8D8C8B89B3
:1047C0008887868584838281A0FB006800FB01F2D4
:1047D00008EB4208B8EB872807D5341858EB0104DA
:1047E000D5D5401C51F10001D1E7341A78EB010412
:1047F000CDD4401E71F10001C9E75FEA4C0C5FEABD
:104800009C5C0DD105D301F000414FF00000BDE8E4
:10481000F081BDE8F04170B5FFF74EFE6DDBFFBEE5
:10482000BDE8F04101494FF0000070470000F87FFB
:1048300010B591EA030F48BF83F000433FF5F6AA95
:10484000841A71EB030C07D28CF0004C121943EB65
:104850000C03001B61EB0C014FEA1154A4EB135C39
:10486000DFF8A4E11EEA430F18BF9EEA445F00F0A0
:10487000B48021EA045123EA6E035242C3EB6E0373
:1048800038BF5B1EDCF1200E25D322FA0CFE10EBA4
:104890000E0043FA0CFE41EB0E01CCF1200E03FAA0
:1048A0000EFE10EB0E00CCF1200E51F1000129D4C8
:1048B00001EB045112FA0EF2BDE8104058BF7047E8
:1048C000401C1CBFB2F1004F704700280CBF491CB0
:1048D00020F00100704712EB020E43EB030218BFF9
:1048E0004FF0010E4EEA4202ACF1200CDCF11E0E3C
:1048F00056D943FA0CFE10EB0E00CCF11E0E51F10E
:10490000FF31D5D50EF1010E12FA0EFE404141EBFA
:10491000010101EB445C5FEA5C5C10D901EB0451DE
:1049200010EBDE7038BFBEF1004FBDE8104018BF7D
:10493000704700280CBF491C20F00100704734D29A
:104940004FEAD42C24F4006411F500111BD0B1FA05
:1049500081F20B3AA41AA41ED2F12003914030FA3E
:1049600003F31943904001EBCC7101EB0451002C8F
:10497000BDE81040A8BF704701F1C04101F00041FF
:104980004FF000007047B0FA80F310FA03F102D143
:10499000BDE810407047E41A173C4805C90AE2E731
:1049A00001EB0451BDE81040704749104FEA300058
:1049B00001EB0451BDE8104002E04FF000017047E8
:1049C0004A0008BF0042F8D0B2F5001F28BF704768
:1049D00001F000414FF0000070479EEA445F07D0AD
:1049E00011EA5E0FBDE8104004BF002100207047AF
:1049F000BDE8104070B5FFF75FFD00BF40DFF63E39
:104A0000104683F0004170470000E0FF43004FEA8A
:104A1000D30C4FEA3C0C43401FBF40070CF16051E0
:104A200013F0FE4F70471CF0006F03D10CF00041F3
:104A3000002070470CF0004343EA507040EACC007D
:104A400010B500F00EF800BF000000924FEA000120
:104A5000FFF780BD4FF00041A1F500214FF00000AD
:104A600070470EF1020E2EF0030E5EF8044B244246
:104A700004D44FEA4102B2F17F4F11D84FEA40030C
:104A8000B3F17F4F0CD80ED14FEAD07C0CEB4C0C1D
:104A90000CF1020CB2F17F4F08BF4CEBD17C04E06B
:104AA0004FF0080C01E04FEAD17C0CEB4C0324FAE8
:104AB00003F404F00704B4F1040C06D20EEB840CEA
:104AC000BDE810404CF0010C6047DFE80CF007082F
:104AD00002024FF00040A0F5800010BD08464200E1
:104AE00018BFD2F1807288BF00F0004010BDF1EE17
:104AF000100A4FF6FF71C0F2C03120EA010040F009
:104B00004070E1EE100A7047FF2141EAD050C00525
:104B10007047000000000000555555555555C53FDC
:104B20007D6FEB0312D6D4BF5544880E55C1C93FE3
:104B30003B8F68B52882A4BF88B20175E0EF493F7A
:104B400009F7FD0DE13D023F4B2D8A1C273A03C0BA
:104B5000C88A599CE52A004059018D1B6C06E6BFA6
:104B600082922EB1C5B8B33F4C5555555555A53F0A
:104B70007751C1166CC156BF9015CB19A001FA3EF2
:104B8000AD529C804F7E92BEC4B1B4BD9EEE213E1C
:104B9000D43888BEE9FAA8BD00004054FB21F93F93
:104BA0003163621A61B4D03D0000601A61B4D03D37
:104BB0007370032E8A19A33B0000002E8A19A33BB1
:104BC000C14920259A837B390000000000000000C5
:104BD0006E83F9A22915444ED15727FCC0DD34F568
:104BE000999562DB4190433CAB6351FE61C5BBDEEE
:104BF0003A6E24B7E0D24D42EA2E49061C92D10902
:104C00001CEB1DFE3EA729B1F53582E88444BB2E7E
:104C100026709CE9417E5FB439D69139F4395383CB
:104C20008B5F849C3B28F9BDFF97F81F0F9805DE2A
:104C30008B112FEF1F6D0A5ACF7E366DB709CB2728
:104C4000663F464F2DEA5F9EC7BA27757BF1E5EBBD
:104C5000F739073DEA92528AB15FFB6B085D8D1F01
:104C60004630035600000000A6F810111111813FD4
:104C7000D561C119A0012ABF7DFEB157E31DC73E12
:104C8000EB9C2B8AE6E55ABE7CD5CF5A3AD9E53D56
:104C900000000000000000000102030406070809EC
:104CA0000000000001020304C84C000800000020BE
:104CB0001000000000020008D84C0008100000207E
:104CC000500C00001C020008010000001000000051
:084CD0000024F40000000000C4
:04000005080001C529
:00000001FF
